{
  "contractName": "RBAC",
  "abi": [
    {
      "inputs": [
        {
          "internalType": "uint256",
          "name": "",
          "type": "uint256"
        }
      ],
      "name": "logs",
      "outputs": [
        {
          "internalType": "string",
          "name": "action",
          "type": "string"
        },
        {
          "internalType": "address",
          "name": "user",
          "type": "address"
        },
        {
          "internalType": "string",
          "name": "role",
          "type": "string"
        },
        {
          "internalType": "uint256",
          "name": "timestamp",
          "type": "uint256"
        }
      ],
      "stateMutability": "view",
      "type": "function",
      "constant": true
    },
    {
      "inputs": [
        {
          "internalType": "string",
          "name": "_action",
          "type": "string"
        },
        {
          "internalType": "string",
          "name": "_role",
          "type": "string"
        }
      ],
      "name": "addLog",
      "outputs": [],
      "stateMutability": "nonpayable",
      "type": "function"
    },
    {
      "inputs": [
        {
          "internalType": "uint256",
          "name": "index",
          "type": "uint256"
        }
      ],
      "name": "getLog",
      "outputs": [
        {
          "internalType": "string",
          "name": "",
          "type": "string"
        },
        {
          "internalType": "address",
          "name": "",
          "type": "address"
        },
        {
          "internalType": "string",
          "name": "",
          "type": "string"
        },
        {
          "internalType": "uint256",
          "name": "",
          "type": "uint256"
        }
      ],
      "stateMutability": "view",
      "type": "function",
      "constant": true
    },
    {
      "inputs": [],
      "name": "getLogsCount",
      "outputs": [
        {
          "internalType": "uint256",
          "name": "",
          "type": "uint256"
        }
      ],
      "stateMutability": "view",
      "type": "function",
      "constant": true
    }
  ],
  "bytecode": "0x608060405234801561001057600080fd5b50610a16806100206000396000f3fe608060405234801561001057600080fd5b506004361061004c5760003560e01c80633206b2c614610051578063a273079a14610084578063cc9e300f146100a0578063e79899bd146100be575b600080fd5b61006b600480360381019061006691906106df565b6100f1565b60405161007b949392919061079f565b60405180910390f35b61009e60048036038101906100999190610673565b6102e4565b005b6100a86103d7565b6040516100b59190610812565b60405180910390f35b6100d860048036038101906100d391906106df565b6103e3565b6040516100e8949392919061079f565b60405180910390f35b60606000606060008080549050851061013f576040517f08c379a0000000000000000000000000000000000000000000000000000000008152600401610136906107f2565b60405180910390fd5b600080868154811061017a577f4e487b7100000000000000000000000000000000000000000000000000000000600052603260045260246000fd5b90600052602060002090600402019050806000018160010160009054906101000a900473ffffffffffffffffffffffffffffffffffffffff168260020183600301548380546101c890610928565b80601f01602080910402602001604051908101604052809291908181526020018280546101f490610928565b80156102415780601f1061021657610100808354040283529160200191610241565b820191906000526020600020905b81548152906001019060200180831161022457829003601f168201915b5050505050935081805461025490610928565b80601f016020809104026020016040519081016040528092919081815260200182805461028090610928565b80156102cd5780601f106102a2576101008083540402835291602001916102cd565b820191906000526020600020905b8154815290600101906020018083116102b057829003601f168201915b505050505091509450945094509450509193509193565b600060405180608001604052808481526020013373ffffffffffffffffffffffffffffffffffffffff1681526020018381526020014281525090806001815401808255809150506001900390600052602060002090600402016000909190919091506000820151816000019080519060200190610362929190610553565b5060208201518160010160006101000a81548173ffffffffffffffffffffffffffffffffffffffff021916908373ffffffffffffffffffffffffffffffffffffffff16021790555060408201518160020190805190602001906103c6929190610553565b506060820151816003015550505050565b60008080549050905090565b600081815481106103f357600080fd5b906000526020600020906004020160009150905080600001805461041690610928565b80601f016020809104026020016040519081016040528092919081815260200182805461044290610928565b801561048f5780601f106104645761010080835404028352916020019161048f565b820191906000526020600020905b81548152906001019060200180831161047257829003601f168201915b5050505050908060010160009054906101000a900473ffffffffffffffffffffffffffffffffffffffff16908060020180546104ca90610928565b80601f01602080910402602001604051908101604052809291908181526020018280546104f690610928565b80156105435780601f1061051857610100808354040283529160200191610543565b820191906000526020600020905b81548152906001019060200180831161052657829003601f168201915b5050505050908060030154905084565b82805461055f90610928565b90600052602060002090601f01602090048101928261058157600085556105c8565b82601f1061059a57805160ff19168380011785556105c8565b828001600101855582156105c8579182015b828111156105c75782518255916020019190600101906105ac565b5b5090506105d591906105d9565b5090565b5b808211156105f25760008160009055506001016105da565b5090565b60006106096106048461085e565b61082d565b90508281526020810184848401111561062157600080fd5b61062c8482856108e6565b509392505050565b600082601f83011261064557600080fd5b81356106558482602086016105f6565b91505092915050565b60008135905061066d816109c9565b92915050565b6000806040838503121561068657600080fd5b600083013567ffffffffffffffff8111156106a057600080fd5b6106ac85828601610634565b925050602083013567ffffffffffffffff8111156106c957600080fd5b6106d585828601610634565b9150509250929050565b6000602082840312156106f157600080fd5b60006106ff8482850161065e565b91505092915050565b610711816108aa565b82525050565b60006107228261088e565b61072c8185610899565b935061073c8185602086016108f5565b610745816109b8565b840191505092915050565b600061075d600d83610899565b91507f496e76616c696420696e646578000000000000000000000000000000000000006000830152602082019050919050565b610799816108dc565b82525050565b600060808201905081810360008301526107b98187610717565b90506107c86020830186610708565b81810360408301526107da8185610717565b90506107e96060830184610790565b95945050505050565b6000602082019050818103600083015261080b81610750565b9050919050565b60006020820190506108276000830184610790565b92915050565b6000604051905081810181811067ffffffffffffffff8211171561085457610853610989565b5b8060405250919050565b600067ffffffffffffffff82111561087957610878610989565b5b601f19601f8301169050602081019050919050565b600081519050919050565b600082825260208201905092915050565b60006108b5826108bc565b9050919050565b600073ffffffffffffffffffffffffffffffffffffffff82169050919050565b6000819050919050565b82818337600083830152505050565b60005b838110156109135780820151818401526020810190506108f8565b83811115610922576000848401525b50505050565b6000600282049050600182168061094057607f821691505b602082108114156109545761095361095a565b5b50919050565b7f4e487b7100000000000000000000000000000000000000000000000000000000600052602260045260246000fd5b7f4e487b7100000000000000000000000000000000000000000000000000000000600052604160045260246000fd5b6000601f19601f8301169050919050565b6109d2816108dc565b81146109dd57600080fd5b5056fea2646970667358221220d12af2afb5d7e49d82f30b3a61456933282c2f711dc10530a06079e53a5236a464736f6c63430008000033",
  "immutableReferences": {},
  "source": "pragma solidity ^0.8.0;\n\ncontract RBAC {\n    struct Log {\n        string action;\n        address user;\n        string role;\n        uint256 timestamp;\n    }\n\nLog[] public logs;\n\nfunction addLog(string memory _action, string memory _role) public {\n    logs.push(Log({\n        action: _action,\n        user: msg.sender,\n        role: _role,\n        timestamp: block.timestamp\n    }));\n}\n\nfunction getLog(uint256 index) public view returns (string memory, address, string memory, uint256) {\n    require(index < logs.length, \"Invalid index\");\n    Log storage log = logs[index];\n    return (log.action, log.user, log.role, log.timestamp);\n}\n\nfunction getLogsCount() public view returns (uint256) {\n        return logs.length;\n    }\n}\n",
  "sourcePath": "/Users/denissebenito/RBAC_Project/blockchain/contracts/RBAC.sol",
  "compiler": {
    "name": "solc",
    "version": "0.8.0+commit.c7dfd78e.Emscripten.clang"
  },
  "schemaVersion": "3.4.16",
  "updatedAt": "2024-12-12T04:48:55.978Z",
  "networkType": "ethereum",
  "devdoc": {
    "kind": "dev",
    "methods": {},
    "version": 1
  },
  "userdoc": {
    "kind": "user",
    "methods": {},
    "version": 1
  }
}